S014000070726F6A6563745F323536302E73726563ED
S113000071C000008FC000008DC000008BC00000D4
S113001089C0000087C0000085C0000083C00000C4
S113002081C000007FC000007DC000007BC00000D4
S113003079C0000077C0000075C0000073C00000E4
S113004071C000006FC000006DC000006BC00000F4
S113005069C0000067C0000065C0000063C0000004
S113006061C000004AC100005DC000005BC0000028
S113007059C0000057C0000055C0000053C0000024
S113008051C000004FC000004DC000004BC0000034
S113009049C0000047C0000045C0000043C0000044
S11300A041C000003FC000003DC000003BC0000054
S11300B039C0000037C0000035C0000033C0000064
S11300C031C000002FC000002DC000002BC0000074
S11300D029C0000027C0000025C0000023C0000084
S11300E021C0000011241FBECFEFD1E2DEBFCDBF7F
S11300F000E00CBF13E0A0E0B2E0ECECF5E100E0BE
S11301000BBF02C007900D92A23DB107D9F723E0BF
S1130110A2EDB3E001C01D92AE3FB207E1F70CD6E9
S11301200C94E40A6DCF982F907F92B992B19E7F80
S113013092B992B19D7F92B992B1946092B9EFE96C
S1130140FFE03197F1F700C0000092B19B7F92B9B4
S1130150EFE9FFE03197F1F700C00000F0E18F9F75
S1130160C001112482B982B18E7F82B982B18D7FA0
S113017082B982B1846082B98FE99FE00197F1F777
S113018000C0000082B18B7F82B9EFE9FFE03197B4
S1130190F1F700C000000895982F907F92B992B1B2
S11301A0916092B992B19D7F92B992B1946092B9E3
S11301B0EFE9FFE03197F1F700C0000092B19B7FB7
S11301C092B9EFE9FFE03197F1F700C00000F0E1E8
S11301D08F9FC001112482B982B1816082B982B13A
S11301E08D7F82B982B1846082B98FE99FE00197E3
S11301F0F1F700C0000082B18B7F82B9EFE9FFE024
S11302003197F1F700C00000089582E08CDF88E2A6
S11302108ADF8CE088DF81E086DF80E884CF089580
S11302200F931F93CF93DF938C01C0E0D0E002C003
S1130230B3DF2196F801EC0FFD1F80818111F8CF07
S1130240DF91CF911F910F9108950F931F93CF9337
S1130250DF93EC0160E177E20E94BD0A382F292F79
S113026089519C4F8F3C974048F0832F922F68EE22
S113027073E00E94BD0A80E3860F8EDFCE0168EE34
S113028073E00E94BD0A04E610E0B8010E94BD0AB2
S113029080E3860F81DFCE01B8010E94BD0A0AE027
S11302A010E0B8010E94BD0A80E3860F75DFCE011D
S11302B0B8010E94BD0A805D6FDFDF91CF911F916D
S11302C00F9108951092C50087E68093C40088E1D9
S11302D08093C10086E08093C20078940895909141
S11302E0C00095FFFCCF8093C60008958091C000A4
S11302F08823E4F78091C60008951F920F920FB6E9
S11303000F9211248F939F9381E090E09093E503E3
S11303108093E4038091C6008093E6039F918F91BC
S11303200F900FBE0F901F901895CF93DF93CADFE5
S11303301092E1031092E0031092E3031092E2039F
S11303401092E9031092E803D1DF80931602209102
S1130350E8033091E903F901E651FC4F80838A30C8
S113036009F48CC02115310509F58133F8F090E0CA
S1130370C09768EE73E0869FA001879F500D969FFB
S1130380500D11248091E0039091E103840F951F97
S11303909093E1038093E0038091E2039091E3035F
S11303A001969093E3038093E20361C02130310509
S11303B0F1F48133E0F090E0C09764E6689FA00117
S11303C0699F500D11248091E0039091E103840F03
S11303D0951F9093E1038093E0038091E203909151
S11303E0E30301969093E3038093E20340C0223039
S11303F0310519F5813308F190E0C097AC01440F41
S1130400551F880F991F880F991F880F991F840FF4
S1130410951F4091E0035091E103840F951F909341
S1130420E1038093E0038091E2039091E30301965A
S11304309093E3038093E2031AC023303105B9F4A7
S11304408133A8F090E0C0974091E0035091E1031C
S1130450840F951F9093E1038093E0038091E2035E
S11304609091E30301969093E3038093E2032F5F5B
S11304703F4F3093E9032093E80366CF8091E00374
S11304809091E10360E177E20E94BD0AC8EED3E0F7
S1130490BE010E94BD0A80E3860F21DF8091E00344
S11304A09091E103BE010E94BD0AC4E6D0E0BE0102
S11304B00E94BD0A80E3860F12DF8091E0039091D1
S11304C0E103BE010E94BD0ACAE0D0E0BE010E9461
S11304D0BD0A80E3860F03DF8091E0039091E1037E
S11304E0BE010E94BD0A805DFADE8AE0F8DE8091DA
S11304F0E0039091E103181619060CF019CFDF916F
S1130500CF910895EAE7F0E080818068808380815C
S11305108760808380818064808308958FEF81B9B0
S1130520EAE0F1E080818F68808380EE84B90895E9
S11305308130910519F00297A9F0089581E0F3DD67
S113054087E192E06DDE80ECEEDD8AEC92E068DE1D
S11305502FEF89E698E1215080409040E1F700C0F8
S11305600000089581E0DFDD85ED92E059DE80EC46
S1130570DADD8FEB92E054DE2FEF89E698E121502B
S113058080409040E1F700C000000895CF93DF93CE
S1130590EC0181E0C8DDC230D105E9F01CF42197FB
S11305A041F04EC0C330D10541F1249709F437C05E
S11305B047C088E292E034DE80ECB5DD86EE92E05E
S11305C02FDE2FEF89E698E1215080409040E1F73B
S11305D000C0000035C082EF92E022DE80ECA3DD93
S11305E084E392E01DDE2FEF89E698E121508040FC
S11305F09040E1F700C0000023C08EEF92E010DECF
S113060080EC91DD8AE093E00BDE2FEF89E698E140
S1130610215080409040E1F700C0000011C086E105
S113062093E0FEDD80EC7FDD82E293E0F9DD2FEFE5
S113063089E698E1215080409040E1F700C0000035
S1130640DF91CF910895CF93DF93EC0181E06BDDCF
S1130650C130D10519F0229799F023C08EE293E0BE
S1130660DFDD80EC60DD8FE393E0DADD2FEF89E6F8
S113067098E1215080409040E1F700C0000011C093
S113068080E593E0CDDD80EC4EDD81E693E0C8DDCE
S11306902FEF89E698E1215080409040E1F700C0B7
S11306A00000DF91CF9108950F931F93CF93DF93B1
S11306B0EC018B0181E037DDC130D10509F04AC07E
S11306C00130110509F582E793E0AADD8091080263
S11306D090910902BADD89E793E0A2DD80910002DE
S11306E090910102B2DD82E692E09ADD80EC1BDD9E
S11306F08CE793E095DD2FEF89E698E12150804067
S11307009040E1F700C000000230110509F009C172
S113071083E893E085DD809108029091090295DDDC
S113072089E793E07DDD80910002909101028DDDE7
S113073082E692E075DD80ECF6DC8AE893E070DD19
S11307402FEF89E698E1215080409040E1F700C006
S11307500000E7C0C230D10509F04AC001301105DC
S113076009F582E793E05CDD80910A0290910B0227
S11307706CDD89E793E054DD8091020290910302DD
S113078064DD82E692E04CDD80ECCDDC8CE793E026
S113079047DD2FEF89E698E1215080409040E1F752
S11307A000C000000230110509F0BBC083E893E0EB
S11307B037DD80910A0290910B0247DD89E793E0CF
S11307C02FDD80910202909103023FDD82E692E0E8
S11307D027DD80ECA8DC8AE893E022DD2FEF89E6B0
S11307E098E1215080409040E1F700C0000099C09A
S11307F0C330D10509F04AC00130110509F582E77B
S113080093E00EDD80910C0290910D021EDD89E7CC
S113081093E006DD809104029091050216DD82E6E4
S113082092E0FEDC80EC7FDC8CE793E0F9DC2FEFD8
S113083089E698E1215080409040E1F700C0000033
S11308400230110509F06DC081E993E0E9DC809183
S11308500C0290910D02F9DC89E793E0E1DC8091D0
S1130860040290910502F1DC82E692E0D9DC80EC8E
S11308705ADC8AE893E0D4DC2FEF89E698E1215032
S113088080409040E1F700C000004BC0249709F07D
S113089048C00130110509F582E793E0C1DC80917D
S11308A00E0290910F02D1DC89E793E0B9DC8091CC
S11308B0060290910702C9DC82E692E0B1DC80EC8A
S11308C032DC8CE793E0ACDC2FEF89E698E1215031
S11308D080409040E1F700C000000230110509F5A6
S11308E083E893E09DDC80910E0290910F02ADDCD1
S11308F089E793E095DC8091060290910702A5DCDC
S113090082E692E08DDC80EC0EDC8AE893E088DC01
S11309102FEF89E698E1215080409040E1F700C034
S11309200000DF91CF911F910F910895AF92BF9274
S1130930CF92DF92EF92FF920F931F93CF93DF93A7
S11309405C0180ECF0DBC12CD12CE12CF12C00E01B
S113095010E0E114F10451F480ECE5DB89E993E063
S11309605FDCE3DC72DC81E792E05ADCDEDCE5018B
S11309702197FE01EE0FFF1FE85FFD4F20813181BB
S1130980821793077CF4E114F10461F485B1806665
S113099085B92FEF89E698E1215080409040E1F736
S11309A000C0000085B18F7985B98FE99FE0019778
S11309B0F1F700C0000063C080ECB5DB89E993E087
S11309C02FDCB3DC42DC89E793E02ADCAEDCFE01F9
S11309D0EE0FFF1FE85FFD4F208131812817390793
S11309E01CF585B18F7985B99FEF23ED80E3915094
S11309F020408040E1F700C0000080EC94DB89E9EE
S1130A0093E00EDC92DC21DC89E793E009DCFE0153
S1130A10EE0FFF1FE050FE4F80819181801B910BF0
S1130A2014DC0F5F1F4F17C080DCFE01EE0FFF1FA9
S1130A30E85FFD4F208131818217930764F485B10B
S1130A40806685B99FEF21EE84E09150204080407C
S1130A50E1F700C000008091090183FF0DC09FEF02
S1130A6024E38CE0915020408040E1F700C0000076
S1130A70CC24C394D12C0EC0EE24E394F12CFE01BB
S1130A80EE0FFF1FE050FE4F808191810817190778
S1130A900CF492CF91E0E916F10409F046C03FC08E
S1130AA086E992E0BDDB80EC3EDB8CE992E0B8DBCA
S1130AB02FEF89E698E1215080409040E1F700C093
S1130AC0000080EC30DB8CEA92E0AADB85B18F7900
S1130AD085B92FEF81EE94E0215080409040E1F7FA
S1130AE000C0000085B1806885B92FEF81EE94E0E5
S1130AF0215080409040E1F700C0000085B18F771D
S1130B0085B92FEF81EE94E0215080409040E1F7C9
S1130B1000C000002196CC24C394D12C02C0C0E0B4
S1130B20D0E0C730D1050CF4BBCF2FEF81EE94E0B9
S1130B30215080409040E1F700C0000085B18068FA
S1130B4085B92FEF81EE94E0215080409040E1F789
S1130B5000C0000085B18F7785B92FEF81EE94E056
S1130B60215080409040E1F700C0000080910901CD
S1130B7083FD04C021E0C216D104A1F48FEF94E3F5
S1130B802CE0815090402040E1F700C0000081E05B
S1130B9090E09093DB038093DA031092D7031092D2
S1130BA0D6031CC08091090183FD05C081E0C816ED
S1130BB0D10409F0CECE9FEF24E38CE09150204085
S1130BC08040E1F700C0000081E090E09093DB03F7
S1130BD08093DA031092D7031092D603DF91CF915A
S1130BE01F910F91FF90EF90DF90CF90BF90AF9047
S1130BF00895CF93DF93EC01181619062CF481E0C5
S1130C0092DACE0122DB05C081E08DDA81E090E04A
S1130C101CDBDF91CF910895CF93DF93EC0118167D
S1130C2019062CF481E07FDACE010FDB05C081E0E8
S1130C307ADA81E090E009DBDF91CF910895CF93D8
S1130C40DF93EC0181E06FDAC130D10519F022970E
S1130C5099F023C08FE993E0E3DA80EC64DA8BEA5D
S1130C6093E0DEDA2FEF89E698E12150804090404E
S1130C70E1F700C0000011C088EB93E0D1DA80EC0A
S1130C8052DA84EC93E0CCDA2FEF89E698E1215034
S1130C9080409040E1F700C00000DF91CF910895BB
S1130CA0CF93DF93EC012197FE01EE0FFF1FE85F66
S1130CB0FD4F808191811816190654F481E033DACE
S1130CC0CC0FDD1FC85FDD4F88819981BEDA0BC070
S1130CD081E029DACC0FDD1FC85FDD4F81E090E0B1
S1130CE099838883B2DADF91CF910895CF93DF930C
S1130CF0EC012197FE01EE0FFF1FE050FE4F8081B3
S1130D0091811816190654F481E00DDACC0FDD1F19
S1130D10C050DE4F8881998198DA0BC081E003DAF4
S1130D20CC0FDD1FC050DE4F81E090E099838883B3
S1130D308CDADF91CF91089581E090E090931502D1
S1130D40809314021092DF031092DE031092DD03ED
S1130D501092DC031092DB031092DA031092D90391
S1130D601092D8031092D7031092D6031092D50391
S1130D701092D40390931302809312029093110261
S1130D80809310021092D3031092D203C7DB3DDA92
S1130D90B9DB8FE39CE90197F1F700C0000092DA18
S1130DA08091140290911502C3DB9FEF24E38CE041
S1130DB0915020408040E1F700C00000809109017B
S1130DC080FF37C18091DE039091DF03009789F49F
S1130DD02091DC033091DD03232B59F4809114021C
S1130DE09091150201979093150280931402A0DB51
S1130DF0DCCF0097C9F02091DA033091DB03232B79
S1130E0099F4019731F485E090E09093DF038093A7
S1130E10DE038091DE039091DF0301979093DF035B
S1130E208093DE03B3DBC1CF2091DC033091DD037B
S1130E3021153105D1F04091D4035091D503452BB0
S1130E40A1F42130310531F483E090E09093DD0387
S1130E508093DC038091DC039091DD0301979093F0
S1130E60DD038093DC03EFDBA0CF4091DA035091E4
S1130E70DB034115510509F16091D8037091D90341
S1130E80672BD9F46091D6037091D703672BA9F42B
S1130E904130510531F423E030E03093DB032093FB
S1130EA0DA036091DA037091DB0361507109709386
S1130EB0DB036093DA03F8DB78CF21303105F1F4FA
S1130EC06091D4037091D503672BC1F08091120215
S1130ED090911302019690931302809312029FEF54
S1130EE021EE84E0915020408040E1F700C00000F2
S1130EF080911202909113027CDE57CF223031058B
S1130F00F1F42091D4033091D503232BC1F08091C7
S1130F101002909111020196909311028093100295
S1130F209FEF21EE84E0915020408040E1F700C023
S1130F30000080911002909111026EDE36CF423093
S1130F40510509F52091D8033091D90321153105B4
S1130F50D1F04091D2035091D303452BA1F4213019
S1130F60310531F483E090E09093D9038093D80362
S1130F708091D8039091D90301979093D9038093DA
S1130F80D8035DDE12CF2091D8033091D9032130EC
S1130F90310529F54091D2035091D303452BF9F043
S1130FA0FC013197EE0FFF1FE85FFD4F2081318177
S1130FB08091120290911302820F931F9183808378
S1130FC09FEF21EE84E0915020408040E1F700C083
S1130FD000008091DE039091DF0362DEE6CE2230D2
S1130FE0310509F0A9CE2091D2033091D303232BEC
S1130FF009F4A2CEFC013197EE0FFF1FE050FE4F23
S1131000208131818091100290911102820F931FEF
S1131010918380839FEF21EE84E0915020408040B3
S1131020E1F700C000008091DE039091DF035EDEF3
S1131030BCCE8091090182FF2FC18091DE03909183
S1131040DF03009789F42091DC033091DD03232B27
S113105059F480911402909115020196909315020F
S11310608093140265DAA1CE0097B9F02091DA03D7
S11310703091DB03232B89F4049721F41092DF03CE
S11310801092DE038091DE039091DF03019690932A
S1131090DF038093DE037ADA88CE2091DC0330917B
S11310A0DD0321153105C1F04091D4035091D503DE
S11310B0452B91F42230310521F41092DD03109276
S11310C0DC038091DC039091DD0301969093DD03B2
S11310D08093DC03B8DA69CE4091DA035091DB03E4
S11310E041155105F9F06091D8037091D903672B2C
S11310F0C9F46091D6037091D703672B99F44230F9
S1131100510521F41092DB031092DA036091DA03A3
S11311107091DB036F5F7F4F7093DB036093DA039F
S1131120C3DA43CE21303105F1F46091D4037091D8
S1131130D503672BC1F0809112029091130201979D
S113114090931302809312029FEF21EE84E091505A
S113115020408040E1F700C000008091120290918D
S1131160130247DD22CE22303105F1F42091D4035D
S11311703091D503232BC1F080911002909111027C
S1131180019790931102809310029FEF21EE84E067
S1131190915020408040E1F700C00000809110028F
S11311A09091110239DD01CE42305105F9F42091BC
S11311B0D8033091D90321153105C1F04091D203F0
S11311C05091D303452B91F42230310521F4109230
S11311D0D9031092D8038091D8039091D903019632
S11311E09093D9038093D8032ADDDFCD2091D803CF
S11311F03091D9032130310529F54091D203509122
S1131200D303452BF9F0FC013197EE0FFF1FE85F84
S1131210FD4F808191812091120230911302821B33
S1131220930B918380839FEF21EE84E091502040C3
S11312308040E1F700C000008091DE039091DF035D
S11312402FDDB3CD2230310509F076CD2091D203C4
S11312503091D303232B09F46FCDFC013197EE0FAA
S1131260FF1FE050FE4F8081918120911002309148
S11312701102821B930B918380839FEF21EE84E004
S1131280915020408040E1F700C000008091DE03CF
S11312909091DF032BDD89CD8091090181FFC6C0C8
S11312A020911402309115022130310599F4809176
S11312B0DE039091DF03009769F44091DC035091C1
S11312C0DD03452B39F401969093DF038093DE030D
S11312D05DD96BCD2230310569F48091DC039091A6
S11312E0DD03009739F401969093DD038093DC03CA
S11312F0AAD95BCD8091DE039091DF03009779F04A
S11313006091DA037091DB036115710541F46F5F3D
S11313107F4F7093DB036093DA03C6D946CD009701
S1131320A9F02091DA033091DB032130310571F407
S11313302091D6033091D703232B41F421E030E0F0
S11313403093D7032093D603F1DA2FCD2091DC0319
S11313503091DD032130310599F44091D40350914B
S1131360D5034115510561F44F5F5F4F5093D50389
S11313704093D40380911202909113023ADC15CD6C
S11313802230310599F42091D4033091D5032115ED
S1131390310561F42F5F3F4F3093D5032093D4037D
S11313A0809110029091110237DCFFCC2091DA0376
S11313B03091DB032230310579F42091D803309148
S11313C0D9032115310541F4C90101969093D9033C
S11313D08093D80334DCE9CC2091D8033091D9032D
S11313E02130310579F44091D2035091D303411552
S11313F0510541F44F5F5F4F5093D3034093D203A1
S11314004FDCD3CC2230310509F096CC2091D203A5
S11314103091D3032115310509F08ECC2F5F3F4F56
S11314203093D3032093D20361DCBFCC80910901B4
S113143083FFBBCC4091DE035091DF03411551057E
S113144081F08091DA039091DB03892B51F410929F
S1131450DF031092DE03809114029091150268D884
S1131460A4CC2091DC033091DD032115310581F0FA
S11314708091D4039091D503892B51F41092DD030C
S11314801092DC03809114029091150251D88DCCF6
S11314906091DA037091DB036115710599F0809115
S11314A0D6039091D703892B69F48091D803909146
S11314B0D903892B39F41092DB031092DA03CA01A1
S11314C065D873CC61157105A9F08091D60390910C
S11314D0D703892B79F081E090E09093DB0380932C
S11314E0DA0361E070E0CA01DFD81092D7031092EA
S11314F0D6035BCC2130310569F48091D4039091FB
S1131500D503892B39F01092D5031092D403C90165
S11315109AD84BCC2230310569F48091D403909150
S1131520D503892B39F01092D5031092D403C90145
S11315308AD83BCC8091D8039091D903009769F065
S11315402091D2033091D303232B39F41092D90381
S11315501092D803CA01A8D828CC009709F4ECCB80
S11315602091D2033091D303232B09F4E5CB1092BD
S1131570D3031092D20363DB18CC97FB072E16F427
S1131580009406D077FD08D00BD007FC05D03EF4BC
S1131590909581959F4F0895709561957F4F08951B
S11315A0AA1BBB1B51E107C0AA1FBB1FA617B70785
S11315B010F0A61BB70B881F991F5A95A9F78095A1
S10F15C09095BC01CD010895F894FFCF74
S11315CC05000600070008000A0014001E0028008D
S11315DC010001000100683E3E53656C6563742094
S11315EC4F7074696F6E73003E3E4F7074696F6E0A
S11315FC732031003E3E4F7074696F6E732032005D
S113160C3E3E5365745F76616C3A200043202000A3
S113161C53003E3E5365745F76616C3A2038304318
S113162C20326D696E005365742054656D703A20D8
S113163C0043004E6F772054656D703A20004F4E76
S113164C202020004F4E2E2020004F4E2E2E200006
S113165C4F4E2E2E2E004F46462020002D54616BEB
S113166C65206F7574206D6F6C642D002020202014
S113167C2020202020202020202020202020003E5C
S113168C3E53657474696E677300202053657474DB
S113169C696E677300202053656C656374204F700A
S11316AC74696F6E730020204F7074696F6E7320B1
S11316BC320020204F7074696F6E732031003E3EEF
S11316CC4F7074696F6E7320330020204F707469EF
S11316DC6F6E7320340020204F7074696F6E73200A
S11316EC33003E3E4F7074696F6E732034003E3E7F
S11316FC54656D7020737465702073697A6500206D
S113170C2054696D6520737465702073697A650063
S113171C202054656D7020737465702073697A652C
S113172C003E3E54696D6520737465702073697A4C
S113173C65003E3E46756E3A004320002020456409
S113174C697400202046756E3A003E3E4564697407
S113175C00202046756E203A004E6F773A20003EEA
S113176C3E54656D70206564697400202054696D65
S113177C6572206564697400202054656D70206561
S113178C646974003E3E54696D65722065646974C5
S105179C000047
S9030000FC
